:100000000C94E5010C940D020C940D020C940D025D
:100010000C940D020C940D020C940D020C940D0224
:100020000C940D020C940D020C940D020C940D0214
:100030000C940D020C940D020C940D020C940D0204
:100040000C944F170C940D020C94BF170C94991735
:100050000C940D020C940D020C940D020C940D02E4
:100060000C940D020C940D02D0A3D0B1D0B5D18068
:10007000D0B8D182D0B520D18120D183D181D18295
:10008000D180D0BED0B9D181D182D0B2D0B020D071
:10009000B2D181D0B520D0BFD0BED181D182D0BE67
:1000A000D180D0BED0BDD0BDD0B8D0B520D0BFD1CA
:1000B00080D0B5D0B4D0BCD0B5D182D18B2E200A9F
:1000C00000D092D0AB20D097D090D09FD0A3D0A119
:1000D000D0A2D098D09BD09820D0A0D095D096D048
:1000E00098D09C20D09AD090D09BD098D091D0A07E
:1000F000D09ED092D09AD0982E200A000A00AB0051
:1001000055007C0084004B00B5001B00E500001783
:10011000E8000047B8000077AB0000ABAB0000552B
:10012000AB000022DD000E00F2003E00C2007100B4
:100130008F00A1005F00D0002F00F9070000000031
:100140000000240027002A00212121D09FD095D033
:10015000A0D095D097D090D093D0A0D0A3D097D056
:1001600098D0A2D09520D0A3D0A1D0A2D0A0D09ECC
:10017000D099D0A1D0A2D092D09E212121200A00D6
:10018000D09AD0B0D0BBD0B8D0B1D180D0BED0B290
:10019000D0BAD0B020D0B7D0B0D0B2D0B5D180D105
:1001A00088D0B5D0BDD0B02E200A00200A00D09A49
:1001B000D0B0D0BBD0B8D0B1D180D0BED0B2D0BE3C
:1001C000D187D0BDD0B0D18F20D0BFD0B5D180D015
:1001D000B5D0BCD0B5D0BDD0BDD0B0D18F3A200005
:1001E0002E200A002E002E00D09AD0B0D0BBD0B85E
:1001F000D0B1D180D183D18E0020D0B3D180D0B006
:10020000D0BCD0BC2E20D09820D0BDD0B520D1827B
:10021000D180D0BED0B3D0B0D0B9D182D0B520D1AA
:1002200083D181D182D180D0BED0B9D181D182D0C9
:10023000B2D0BE20D18120D182D180D183D0B7D09D
:10024000BED0BC21200A0070756D705F6D6C5B3193
:10025000325D203D200070756D705F6D6C5B3131DB
:100260005D203D200070756D705F6D6C5B31305DA1
:10027000203D200070756D705F6D6C5B395D203DB9
:10028000200070756D705F6D6C5B385D203D2000E7
:1002900070756D705F6D6C5B375D203D2000707513
:1002A0006D705F6D6C5B365D203D200070756D700C
:1002B0005F6D6C5B355D203D200070756D705F6D0E
:1002C0006C5B345D203D200070756D705F6D6C5B04
:1002D000335D203D200070756D705F6D6C5B325D2D
:1002E000203D200070756D705F6D6C5B315D203D51
:1002F0002000756E697473203D200077656967681A
:10030000745F6F665F7374616E64617264203D2018
:100310000063616C6962726174696F6E5F666163CC
:10032000746F72203D20006F756E636573203D20F1
:10033000006C6564735F6272696768746E6573737D
:10034000203D20004C4544535F4E554D5049584583
:100350004C53203D200073746570203D20006D6F6C
:100360006465203D20006E6F775F70657263656E17
:1003700074203D200000000000250028002B000014
:1003800000000023002600290004040404040404DF
:100390000402020202020203030303030301020434
:1003A00008102040800102040810200102040810F7
:1003B0002000000008000201000003040700000004
:1003C000000000000000F117731E11241FBECFEFC4
:1003D000D8E0DEBFCDBF12E0A0E0B1E0E0EDF9E48F
:1003E00002C005900D92AA35B107D9F724E0AAE51D
:1003F000B2E001C01D92A239B207E1F711E0C4EEEC
:10040000D1E004C02197FE010E94A822C33ED1077B
:10041000C9F70E9470180C94DB240C9400004091E2
:100420000D0150910E0185E098E0489F9001499F91
:10043000300D589F300D1124275E394C30930E013A
:1004400020930D01ADE2B0E00E9456210895E8EE40
:10045000F2E09081989F090E90E0911D9083918128
:10046000989F090E90E0911D91839281989F090EAB
:1004700090E0911D92831124339693E0EF36F907B3
:1004800041F70895833081F028F4813099F082306B
:10049000A9F008958730A9F08830C9F08430B1F40C
:1004A000809180008F7D03C0809180008F77809342
:1004B0008000089584B58F7784BD089584B58F7DBD
:1004C000FBCF8091B0008F778093B000089580912A
:1004D000B0008F7DF9CFCF93DF93282F30E0F90163
:1004E000EF54FC4F8491F901E356FC4FD491F9018C
:1004F000E757FC4FC491CC23A1F081110E94420226
:10050000EC2FF0E0EE0FFF1FE158FC4FA591B491E6
:10051000EC91ED2381E090E009F480E0DF91CF9150
:10052000089580E090E0FACF1F93CF93DF93282FB8
:1005300030E0F901EF54FC4F8491F901E356FC4F90
:10054000D491F901E757FC4FC491CC23A9F0162FA1
:1005500081110E944202EC2FF0E0EE0FFF1FEB58DA
:10056000FC4FA591B4918FB7F894EC91111108C08C
:10057000D095DE23DC938FBFDF91CF911F9108953B
:10058000DE2BF8CF3FB7F8948091E4029091E5021A
:10059000A091E602B091E70226B5A89B05C02F3FC7
:1005A00019F00196A11DB11D3FBFBA2FA92F982F99
:1005B0008827BC01CD01620F711D811D911D42E094
:1005C000660F771F881F991F4A95D1F708958F925C
:1005D0009F92AF92BF92CF92DF92EF92FF926B0108
:1005E0007C010E94C2024B015C01C114D104E104F0
:1005F000F104B9F00E94C202681979098A099B09BD
:10060000683E73408105910580F321E0C21AD1084C
:10061000E108F10888EE880E83E0981EA11CB11C49
:10062000E4CFFF90EF90DF90CF90BF90AF909F907E
:100630008F9008952FB7F8946091E0027091E102D5
:100640008091E2029091E3022FBF0895CF92DF9252
:10065000EF92FF92CF93C82F0E941A036B017C0187
:1006600020E03C2FA8E1B1E00E9456219B01AC01A3
:10067000C701B6010E948422AC0166277727CA0110
:1006800033E0969587953A95E1F797709A0122277E
:100690003074232B31F02FEF37E0F901E81BF90B11
:1006A000CF01E92FEE0FEE0FF0E0E15BFE4F20816E
:1006B000318186959281899F200D311D112457FF2C
:1006C00003C031952195310930584CE250E0249F08
:1006D000B001359FC001E0E0349F700D811D9E1F69
:1006E000259F700D811D9E1F1124620F731F8E1F89
:1006F0009E1FCF91FF90EF90DF90CF900895CF9302
:10070000DF93EC01FC01EF5BFB4F81E082AF809156
:100710008004882379F00E94C202CC0FDD1FCC0F29
:10072000DD1FCF5BDB4F6A877B878C879D87DF91DF
:10073000CF9108950E941A03F0CFCF92DF92EF92EB
:10074000FF920F931F93CF93DF93F0902804809133
:100750002B0490912C04A0912D04B0912E04892B90
:100760008A2B8B2BD9F00E94C20200918703109133
:1007700088032091890330918A03601B710B820BDF
:10078000930B00912B0410912C0420912D04309197
:100790002E046017710782079307C8F20E94C202F5
:1007A00060938703709388038093890390938A03EF
:1007B000E0913304F0913404309759F040912F04C4
:1007C0005091300460913104709132048F2D09955D
:1007D000F82EC0918503D091860305E713E06801E8
:1007E000209741F185E8C81683E0D80619F1E88121
:1007F000F9810484F585E02DCE010995F6018193F8
:1008000091936F018091290490912A048436910577
:1008100008F41C864D855E856A817B81E881F981BB
:100820000280F381E02D2F2DCE0109950C80DD8112
:10083000C02DD6CFC0918503D0918603209799F023
:10084000F3E005381F0779F0F801619171918F018C
:10085000E881F9810684F785E02DCE0109950C80A9
:10086000DD81C02DEBCF8091730390917403EC0177
:100870002196D0937403C09373034997E4F10E94C7
:100880001A0300916F03109170032091710330914E
:1008900072036B017C01C01AD10AE20AF30AA701B4
:1008A0009601211531054105510521F421E030E083
:1008B00040E050E088EE93E0C89FB001C99F700D02
:1008C000D89F700D1124072E000C880B990B0E94E5
:1008D000342130932A042093290410927403109237
:1008E00073030E941A0360936F03709370038093E5
:1008F000710390937203DF91CF911F910F91FF903D
:10090000EF90DF90CF9008958F929F92AF92BF9219
:10091000CF92DF92EF92FF926B017C010E941A034B
:100920004B015C0161E070E080E090E00E94E70232
:100930000E949D030E941A03681979098A099B097C
:100940006C157D058E059F0568F3FF90EF90DF9095
:10095000CF90BF90AF909F908F90089580E991E0E5
:100960000895AF92BF92CF92DF92EF92FF920F93D2
:100970001F93CF93DF936C017B018B01040F151F35
:10098000EB015E01AE18BF08C017D10759F069919D
:10099000D601ED91FC910190F081E02DC601099501
:1009A000892B79F7C501DF91CF911F910F91FF90AE
:1009B000EF90DF90CF90BF90AF900895FC01538DE2
:1009C000448D252F30E0842F90E0821B930B541729
:1009D00010F0CF96089501970895FC01918D828DB6
:1009E000981761F0A28DAE0FBF2FB11D5D968C914F
:1009F000928D9F5F9F73928F90E008958FEF9FEF8E
:100A00000895FC01918D828D981731F0828DE80F49
:100A1000F11D858D90E008958FEF9FEF0895FC0103
:100A2000918D228D892F90E0805C9F4F821B9109D0
:100A30008F73992708958BE893E00E940F0521E0BA
:100A4000892B09F420E0822F089580E090E0892B23
:100A500029F00E941B0581110C9400000895FC01EF
:100A6000A48DA80FB92FB11DA35ABF4F2C91848D0F
:100A700090E001968F739927848FA689B7892C936C
:100A8000A089B1898C91837080648C93938D848DBF
:100A9000981306C00288F389E02D80818F7D8083C2
:100AA0000895EF92FF920F931F93CF93DF93EC0182
:100AB00081E0888F9B8D8C8D98131AC0E889F98905
:100AC000808185FF15C09FB7F894EE89FF89608308
:100AD000E889F98980818370806480839FBF81E089
:100AE00090E0DF91CF911F910F91FF90EF900895CB
:100AF000F62E0B8D10E00F5F1F4F0F731127E02EA6
:100B00008C8D8E110CC00FB607FCFACFE889F989DD
:100B1000808185FFF5CFCE010E942F05F1CFEB8DAF
:100B2000EC0FFD2FF11DE35AFF4FF0829FB7F894B1
:100B30000B8FEA89FB8980818062CFCF0F931F934F
:100B4000CF93DF938C01D0E0C0E0F801EC0FFD1FE4
:100B50006491662341F08BE893E00E945105892B54
:100B600011F02196F2CFCE01DF91CF911F910F911D
:100B70000895CF93DF93EC01888D8823B9F0AA897B
:100B8000BB89E889F9898C9185FD03C0808186FD48
:100B90000DC00FB607FCF7CF8C9185FFF2CF808197
:100BA00085FFEDCFCE010E942F05E9CFDF91CF91D8
:100BB0000895DC01FB016C9111964C9111971296EE
:100BC0007C91262F220F220F220F95E5822F899FDD
:100BD000080E80E0811D1124562F5074362F30727C
:100BE00067FD60C0511149C0311106C0982F909522
:100BF000282F892F90E004C025E5280F90E08BEA8C
:100C00004F3FF1F0442309F46CC0409530E0442399
:100C100029F0449F312D112441113F5F432F40950E
:100C2000849F080E80E0811D249F020E20E0211D7C
:100C3000949F090E90E0911D1124830F230F930FB1
:100C40007F3FB9F030E0772321F0779F312D09F015
:100C50003F5F332309F449C0839F080E80E0811D64
:100C6000239F020E20E0211D939F090E90E0911D0D
:100C70001124808321839283089531110DC0922F16
:100C80002AEA929F090E90E0911D11242BEA291B5C
:100C9000922F2AEA280FADCF90E0282F2095982F89
:100CA00080E0AECF511111C031110BC0922F8AEAF2
:100CB000989F090E90E0911D11242BEA291B9B5A45
:100CC000EFCF982F909520E09BCF311106C025E5FE
:100CD000280F9BEA981B822FF6CF2AEA280F30E0D4
:100CE000F9CF9FEF2FEF8FEFABCF90E020E080E0C8
:100CF000C0CFAF92BF92CF92DF92EF92FF920F934D
:100D00001F93CF93DF9300D01F92CDB7DEB75A0168
:100D100019821A821B82882361F18B01E1E0F0E0E5
:100D2000E82EF12CD8012D918D012223F1F06F01D5
:100D3000B1E0CB1AD108D501AC0DBD1D4C914423B7
:100D4000A1F030E02F5F3F4FD7010E945621A42F22
:100D5000B0E011969B01AC010E94EA20A1E0B0E056
:100D6000AC0FBD1FAC0DBD1D8C933196E430F10569
:100D7000C9F669817A818B810F900F900F90DF9176
:100D8000CF911F910F91FF90EF90DF90CF90BF9088
:100D9000AF90089508950F931F93CF93DF93209101
:100DA00090022F5F322F37703093900220FF2BC0BC
:100DB00020E831FD2064347009F02062205FFC01DE
:100DC000EC01239600E011E06785662329F070E0CE
:100DD000C8010E9494226F5F6187822F869F080E50
:100DE00080E0811D1124811110C01682662311F04C
:100DF000615061873196EC17FD0731F7DF91CF9194
:100E00001F910F91089520E0D4CF81508683EECFBB
:100E10004F925F927F928F929F92AF92BF92CF92AA
:100E2000DF92EF92FF920F931F93CF93DF932C01EA
:100E3000EB010E94C202F20125893689621B730B05
:100E40006A307105B0F3F8948A819B8118161906EF
:100E50000CF0CDC1E881F9816BB1862E689486F8DB
:100E60003BB13F7B3BB9DA848F812D2D281B822F2C
:100E70002F834C85042E000C550BAA81BB817889E9
:100E8000FF84E9887F5FF394E3949E819884B9841A
:100E9000AB841181C12C6C2D0C2D2C2D218111279F
:100EA00088942111280F08F42FEF8195889470FD04
:100EB000120F1795889471FD120F1795889472FD83
:100EC000120F1795889473FD120F1795889474FD6F
:100ED000120F1795889475FD120F1795889476FD5B
:100EE000120F1795889477FD120F17958894622F2B
:100EF0007111612F8D0D162F002C8BB800C017FFBC
:100F00003BB920816627889400C000C0002C3BB903
:100F10002111290F00C0002C8BB800C016FF3BB96F
:100F200008F42FEF9195889400C000C0002C3BB9C5
:100F3000F0FC620F00C0002C8BB800C015FF3BB95D
:100F400067958894F1FC620F00C000C0002C3BB98B
:100F50006795889400C0002C8BB800C014FF3BB983
:100F6000F2FC620F6795889400C000C0002C3BB96A
:100F7000F3FC620F00C0002C8BB800C013FF3BB91C
:100F800067958894F4FC620F00C000C0002C3BB948
:100F90006795889400C0002C8BB800C012FF3BB945
:100FA000F5FC620F6795889400C000C0002C3BB927
:100FB000F6FC620F00C0002C8BB800C011FF3BB9DB
:100FC00067958894F7FC620F00C000C0002C3BB905
:100FD0006795889400C0002C8BB800C010FF3BB907
:100FE000122FF110162F9B0D00C000C0002C3BB932
:100FF00000C000C0002C8BB800C017FF3BB9228195
:101000006627889400C000C0002C3BB92111290D2F
:1010100000C0002C8BB800C016FF3BB908F42FEFBE
:10102000E40FF51F00C000C0002C3BB9E0FC620FCC
:1010300000C0002C8BB800C015FF3BB967958894A1
:10104000E1FC620F00C000C0002C3BB9679588949A
:1010500000C0002C8BB800C014FF3BB9E2FC620F4B
:101060006795889400C000C0002C3BB9E3FC620F78
:1010700000C0002C8BB800C013FF3BB96795889463
:10108000E4FC620F00C000C0002C3BB96795889457
:1010900000C0002C8BB800C012FF3BB9E5FC620F0A
:1010A0006795889400C000C0002C3BB9E6FC620F35
:1010B00000C0002C8BB800C011FF3BB96795889425
:1010C000E7FC620F00C000C0002C3BB96795889414
:1010D00000C0002C8BB800C010FF3BB9122FE110EC
:1010E000162F919400C000C0002C3BB99A0C00C090
:1010F00000C08BB800C017FF3BB9218166278894D8
:1011000000C000C0002C3BB92111280F00C0002CEA
:101110008BB800C016FF3BB908F42FEF8195889477
:1011200000C000C0002C3BB970FD620F00C0002C55
:101130008BB800C015FF3BB96795889471FD620FAD
:1011400000C000C0002C3BB96795889400C0002CFB
:101150008BB800C014FF3BB972FD620F679588948D
:1011600000C000C0002C3BB973FD620F00C0002C12
:101170008BB800C013FF3BB96795889474FD620F6C
:1011800000C000C0002C3BB96795889400C0002CBB
:101190008BB800C012FF3BB975FD620F679588944C
:1011A00000C000C0002C3BB976FD620F00C0002CCF
:1011B0008BB800C011FF3BB96795889477FD620F2B
:1011C00000C000C0002C3BB96795889400C0002C7B
:1011D0008BB800C010FF3BB9122F7111162F8D0D67
:1011E00000C000C0002C3BB9119709F086CEEA81FF
:1011F000FB812EE130E0DF010E94AE2230E020E0F2
:10120000A901AAE9EA9F0E0E411DFA9F400D511D4A
:1012100011244F0F511DDC01CB01840F951FA11D1F
:10122000B11D893E43E09407A105B10508F434C01F
:10123000885E9340A109B10942E0B695A7959795BC
:1012400087954A95D1F747E0849F080E211D949F0A
:10125000200D311D1124290F311D60918F0270E086
:10126000860F971F820F931F4091E0025091E10279
:101270006091E2027091E302292F3327420F531F3E
:10128000611D711D4093E0025093E1026093E20200
:101290007093E30280938F0278940E94C202F2015D
:1012A000768B658BDF91CF911F910F91FF90EF901F
:1012B000DF90CF90BF90AF909F908F907F905F9086
:1012C0004F90089581E090E00895569A08956F92A6
:1012D0007F928F92CF92DF92EF92FF920F931F93A4
:1012E000CF93DF93CDB7DEB762970FB6F894DEBF2A
:1012F0000FBECDBF8C016B017A01822FA801475F21
:101300005F4FB8016A5F7F4F0E9479063B01882ECC
:10131000D8011C962C91C701F7FE04C08827992795
:101320008E199F09DA82C9829C838B839E838D8369
:10133000688A798A8A8A213049F5CE0101960E940D
:10134000CB0683E08D871F861E86F7FE02C08DEFD9
:101350008D87D801ED91FC910288F389E02DBE01C3
:101360006F5F7F4FC801099562960FB6F894DEBF94
:101370000FBECDBFDF91CF911F910F91FF90EF90E6
:10138000DF90CF908F907F906F9008951C861B8682
:101390001A86198618861F82D4CFCF92DF92EF92D9
:1013A000FF920F931F93CF93DF93CDB7DEB7629772
:1013B0000FB6F894DEBF0FBECDBF8C016B017A0172
:1013C000822FA801475F5F4FB8016A5F7F4F0E947D
:1013D00079069B01482FD8011C968C91DA82C9822C
:1013E000FC82EB82FE82ED82288B398B4A8B813026
:1013F00009F5CE0101960E94CB061D861F861E862A
:10140000D801ED91FC910288F389E02DBE016F5F58
:101410007F4FC801099562960FB6F894DEBF0FBEE4
:10142000CDBFDF91CF911F910F91FF90EF90DF9093
:10143000CF9008951C861B861A86198618861F82EF
:10144000DCCF90E080E00895FC0164870895FC0102
:10145000848590E00895FC018585968508954091E6
:101460000D0150910E0125E038E0429FC001439FDD
:10147000900D529F900D1124875E994C90930E0110
:1014800080930D01890F0895FF920F931F93CF93BF
:10149000DF93F82E062FC7E0D0E010E061E0802F48
:1014A0000E9494028F2D0E946B020C2E01C0880FA7
:1014B0000A94EAF7182B60E0802F0E94940221978B
:1014C00068F7812FDF91CF911F910F91FF900895C1
:1014D000EF92FF920F931F93CF93DF938091840439
:1014E0000E946B02892B31F060E070E0CB010E941A
:1014F000E702F4CFDFB7F89460918304809184040D
:101500000E94440A082F60918304809184040E9401
:10151000440AC82F60918304809184040E94440A85
:10152000182FF12CE12C809185048E151F0479F081
:1015300070F061E0809183040E94940260E08091E9
:1015400083040E9494028FEFE81AF80AECCFDFBF01
:101550006C2F70E090E080E0982F872F762F662721
:10156000802B612B000F000B10E030E020E0302FCB
:10157000222711270027602B712B822B932BDF91C1
:10158000CF911F910F91FF90EF900895CF92DF922E
:10159000EF92FF92CF93CAE0C12CD12C76010E942A
:1015A000680AC60ED71EE81EF91E60E070E0CB0187
:1015B0000E94E702C15099F7C701B6012AE030E066
:1015C00040E050E00E94CB20CA01B9010E94951F63
:1015D0000E94442260938604709387048093880459
:1015E00090938904CF91FF90EF90DF90CF90089572
:1015F000CF92DF92EF92FF920F931F93CF93DF93DF
:10160000C82FC12CD12C7601D0E00E94680AC60EEA
:10161000D71EE81EF91E60E070E0CB010E94E702D1
:10162000DF5FCD13F2CF2C2F30E050E040E0C70158
:10163000B6010E94CB208091860490918704A091EE
:101640008804B091890479018A01E81AF90A0A0B21
:101650001B0BC801B7010E94951F20918A0430918D
:101660008B0440918C0450918D040E94D221DF9113
:10167000CF911F910F91FF90EF90DF90CF90089541
:10168000CF92DF92EF92FF920F931F93CF93DF934E
:10169000CDB7DEB7E3970FB6F894DEBF0FBECDBF70
:1016A0008091DB029091DC02892B09F05AC0809175
:1016B000BF029091C002892BA1F480910801909102
:1016C0000901892B71F4E1ECF2E01192119222E010
:1016D000EB3DF207D1F781E090E090930901809310
:1016E00008018091080190910901019709F040C01B
:1016F00081EE0E9427028DE090E00E9426038C017B
:1017000080918E0291E0980F90938E0289838FEFE3
:101710008A8386E98B83BE016F5C7F4FCE01019681
:101720000E94D90599A9F801EE0FFF1FE00FF11FE4
:10173000E851FD4F8081890F08F48FEF80839AA9CB
:101740008181890F08F48FEF81839BA98281890FA2
:1017500008F48FEF828380910A01809328040E940D
:101760009D038091DB029091DC02892B09F040C03F
:101770008091080190910901029709F039C08DEF1D
:101780000E9427028DE090E00E9426038C01809148
:101790008E0291E0980F90938E0289838FEF8A8357
:1017A00080EC8B83BE016F5C7F4FCE0101960E945F
:1017B000D90599A9F801EE0FFF1FE00FF11FE851BD
:1017C000FD4F8081890F08F48FEF80839AA9818172
:1017D000890F08F48FEF81839BA98281890F08F418
:1017E0008FEF828380910A01809328040E949D03D9
:1017F0008091DB029091DC02892B79F580910801C0
:1018000090910901039749F580918D028F5F809334
:101810008D02982F990F890F89838FEF8B8380EF2B
:101820008A8308EE12E0B801CE0101960E94D90524
:101830008981895F89830D5F1F4F83E00F36180709
:1018400091F780910A01809328040E949D0365E02E
:1018500070E080E090E00E9484048091DB0290912F
:10186000DC02892B09F033C08091080190910901B5
:10187000049769F585EF0E9427020E942F0A8035A0
:10188000D0F40E940F02FC01EE0FFF1FE80FF91FBA
:10189000E851FD4F80819FEF890F08F48FEF80831F
:1018A00090E08181890F08F48FEF81838281890F15
:1018B00008F48FEF828380910A01809328040E94AC
:1018C0009D0368E070E080E090E00E9484048091D5
:1018D000DB029091DC02892B09F033C08091080172
:1018E00090910901059769F585EF0E9427020E94F2
:1018F0002F0A8035D0F40E940F0220E0FC01EE0F89
:10190000FF1FE80FF91FE851FD4F8081820F08F497
:101910008FEF80838181820F08F48FEF8183828132
:101920009FEF890F08F48FEF828380910A018093E3
:1019300028040E949D0368E070E080E090E00E942F
:1019400084048091DB029091DC02892B09F07BC03A
:101950008091080190910901069709F074C0E0E6B2
:10196000CE2EE2E0DE2E76011EE00E942F0A819F3D
:1019700090011124D7019D917D01931B08F490E003
:10198000FD0131979083BDE8EB16B2E0FB0669F7E5
:10199000EBE8F2E023E030E08081429150E0840FF8
:1019A000952F911D840F951FB9010E949422628387
:1019B00082E0E036F80781F70E942F0A8837B8F4F2
:1019C0000E942F0A97E0899F80011124012F11277F
:1019D0000E942F0AAFE58A9FC00111249056F8019A
:1019E000E05AFD4F8081890F08F48FEF8083E8EE85
:1019F000F2E03FEB40E0D6018D916D01942F8823FA
:101A000029F0839F912D112431119F5F892F880F19
:101A1000880F97FDD0C196FFD1C1282F90E08FEF9E
:101A20008083218392833396EC14FD0421F7809107
:101A30000A01809328040E949D0360E170E080E029
:101A400090E00E9484048091DB029091DC02892B5B
:101A500009F052C08091080190910901079709F09F
:101A60004BC08BEE0E94270207E010E0F12C68ECDF
:101A7000E62EDD24DA94F982EA82DB82BE016F5C15
:101A80007F4FCE0101960E94D905C8010E9426030E
:101A900049A99C01220F331FF901E80FF91FE851F2
:101AA000FD4F5081541708F440834AA9F901E80F0B
:101AB000F91FE851FD4F5181541708F441834BA998
:101AC000280F391FF901E851FD4F8281841708F46E
:101AD0004283B0E2FB0E0F5F1F4F0F30110559F626
:101AE00080910A01809328040E949D0360E170E0C8
:101AF00080E090E00E9484048091DB029091DC02FF
:101B0000892B09F0C0C080910801909109010897C4
:101B100009F0B9C08EEF90E0DE0111969E012F5CB6
:101B20003F4F8D01FC0145915591659174916C93E6
:101B300011965C93119712964C93129704961396F4
:101B40002A173B0779F70E941A039B01AC0160E05A
:101B500070ED83E490E00E948422292F96FD209569
:101B6000E22FEF732F7096FD2F5FE695E695E695D1
:101B7000E670F0E0E75EFE4F8181829F802D212D8F
:101B8000112482958F702295207F822B2081820FD5
:101B900097FD819580589FEB899F080E80E0811DFD
:101BA000112450918D02851B805CA8EEB2E072EC8E
:101BB000780F652F62956F70452F4F70E62FEE0FEF
:101BC000E60FE00FF12FF11D308121819281442336
:101BD00009F427C033966F3009F4F8014295407F2D
:101BE000F42EF0943F9D030E30E0311D6081649F20
:101BF000060E60E0611D360F2F9D020E20E0211DB4
:101C00006181649F060E60E0611D260F9F9D090E95
:101C100090E0911D6281649F060E60E0611D960F49
:101C200011248F3FC1F0882309F4CBC041E0480F55
:101C3000332321F0349F030E30E0311D222321F0A5
:101C4000249F020E20E0211D992321F0949F090E6C
:101C500090E0911D11243C9311962C9311971296AC
:101C60009C9312975E5F1396865F7813A2CF809144
:101C70000A01809328040E949D0368E070E080E0E0
:101C800090E00E9484048091DB029091DC02892B19
:101C900009F047C08091080190910901099709F066
:101CA00040C085EF0E9427020E940F028C010E9413
:101CB0002F0AE0E48E9FC001112480918D02890FCC
:101CC000898388EC8A838FEF8B83BE016F5C7F4FA3
:101CD000CE0101960E94D90599A9F801EE0FFF1FC8
:101CE000E00FF11FE851FD4F8081890F08F48FEF5D
:101CF00080839AA98181890F08F48FEF81839BA942
:101D00008281890F08F48FEF828380910A0180938A
:101D100028040E949D0368E070E080E090E00E944B
:101D200084048091DB029091DC02892B09F032C09F
:101D300080910801909109010A9761F585EF0E9451
:101D400027020E942F0A8035C8F40E940F022FEF4D
:101D5000FC01EE0FFF1FE80FF91FE851FD4F8081D6
:101D6000820F08F48FEF80838181820F08F48FEF58
:101D700081838281820F08F48FEF828380910A0130
:101D8000809328040E949D0368E070E080E090E06A
:101D90000E9484040E941A03E3960FB6F894DEBFF3
:101DA0000FBECDBFDF91CF911F910F91FF90EF90AC
:101DB000DF90CF900895982F2FEF31CE90E020E064
:101DC0002FCE90E020E030E046CFFC0101900020D3
:101DD000E9F73197AF01481B590BBC018BE893E041
:101DE0000C94B1048F929F92AF92BF920F931F9366
:101DF000CF93DF93CDB7DEB7A1970FB6F894DEBFD0
:101E00000FBECDBF19A2423008F44AE08E010F5D2B
:101E10001F4F842E912CB12CA12CA50194010E945E
:101E20003421E62FB901CA01EA30F4F4E05DD801AB
:101E3000EE938D01232B242B252B79F790E080E066
:101E4000109719F0CD010E94E50EA1960FB6F894F7
:101E5000DEBF0FBECDBFDF91CF911F910F91BF901D
:101E6000AF909F908F900895E95CE1CFCF92DF9281
:101E7000EF92FF92CF93DF936C01990FEE08FF086A
:101E8000F7FE1FC06DE28BE893E00E945105EC0164
:101E900066277727CB016C197D098E099F094AE0D7
:101EA0000E94F20EC80FD91F88E891E00E94E50E4B
:101EB0008C0F9D1FDF91CF91FF90EF90DF90CF901F
:101EC00008954AE0C701B6010E94F20EEC01ECCF82
:101ED0004F925F926F927F928F929F92AF92BF923A
:101EE000CF92DF92EF92FF920F931F93CF936B01EC
:101EF0007C01742EAC019B010E947F22882399F003
:101F00008BE891E0CF911F910F91FF90EF90DF90C0
:101F1000CF90BF90AF909F908F907F906F905F9089
:101F20004F900C94E50E46015701E894B7F82FEF57
:101F30003FEF4FE75FE7C501B4010E947F228111A7
:101F40000DC02FEF3FEF4FE75FE7C501B4010E94DF
:101F50008E1F18161CF48FE891E0D4CF2FEF3FEFBF
:101F60004FE75FE4C701B6010E947A2218161CF4FD
:101F700083E991E0C7CF2FEF3FEF4FE75FECC70159
:101F8000B6010E948E1F87FDF3CF20E030E0A9014B
:101F9000C701B6010E948E1F10E000E087FF0AC053
:101FA0006DE28BE893E00E9451058C01F7FAF09402
:101FB000F7F8F094C0E060E070E080E09FE37C160A
:101FC00041F020E030E040E251E40E94D221CF5FB6
:101FD000F6CFA70196010E9466212B013C010E94C9
:101FE0004B224B015C014AE00E94F20E7C01E00EA4
:101FF000F11ECC23C1F1C501B4010E94931F9B01C6
:10200000AC01C301B2010E9465214B015C016EE28B
:102010008BE893E00E945105E80EF91EC15018F1BB
:1020200020E030E040E251E4C501B4010E94F41F19
:102030002B013C010E944B224B01B12CA12C4AE008
:10204000C501B4010E94F20EE80EF91EC501B401EB
:102050000E94931F9B01AC01C301B2010E94652144
:102060004B015C01DBCFC701CF911F910F91FF9016
:10207000EF90DF90CF90BF90AF909F908F907F9028
:102080006F905F904F900895CF93DF9342E00E944E
:10209000680FEC0188E891E00E94E50E8C0F9D1F0F
:1020A000DF91CF9108950C946523FF920F931F93B6
:1020B000CF93DF93EC018B01FB01F0800E94B520F0
:1020C000F81621F06F2DCE010E94BD20F801F1809D
:1020D0002196CE010E94B520F81621F06F2DCE0179
:1020E0000E94BD20C801DF91CF911F910F91FF90F9
:1020F00008950F931F93CF93DF9300D0CDB7DEB732
:102100008091DB029091DC02039709F07CC08CEF98
:1021100090E00E949E0581EC90E00E949E0588E67A
:1021200090E00E949E0564E670E080E090E00E94EE
:10213000E702E8EEF2E08FEF80831182128233969D
:1021400093E0EF36F907C1F780910A0180932804E4
:102150000E949D0360E177E280E090E00E94E70248
:1021600083E090E09A838983BE016F5F7F4F84E6AE
:1021700090E00E9455100FEF10E01A830983BE0112
:102180006F5F7F4F84E190E00E9455101A830983AE
:10219000BE016F5F7F4F85E190E00E9455101A836A
:1021A0000983BE016F5F7F4F86E190E00E9455106A
:1021B0001A830983BE016F5F7F4F87E190E00E9421
:1021C00055101A830983BE016F5F7F4F88E190E04D
:1021D0000E9455108091C3029091C40265E070E0A6
:1021E0000E9494227A836983BE016F5F7F4F84E1EE
:1021F00090E00E94551081E090E09093DE02809381
:10220000DD020E941A030F900F90DF91CF911F9172
:102210000F9108950E94AB240F931F93CF93DF93E8
:10222000EC0188819981009759F02A813B8126171A
:10223000370730F081E0DF91CF911F910F91089522
:102240008B016F5F7F4F0E94EE23009759F09983B7
:1022500088831B830A832C813D81232B59F7FC0142
:102260001082E8CF80E0E7CF0F931F93CF93DF93E7
:1022700061157105F9F08C01C0913F04D0914004C3
:10228000C60FD71FBE018BE394E00E940C11882378
:1022900091F020913B0430913C0480913F04909157
:1022A0004004B801820F931F0E94D424D0934004AD
:1022B000C0933F0481E0DF91CF911F910F9108956A
:1022C000FC0101900020E9F73197BF01681B790BF1
:1022D0000C9434110F931F93CF93DF93CDB7DEB7D8
:1022E00028970FB6F894DEBF0FBECDBF4AE08E012F
:1022F0000F5F1F4FB8010E94281FF80101900020B6
:10230000E9F73197BF01601B710BC8010E943411BE
:1023100028960FB6F894DEBF0FBECDBFDF91CF91E8
:102320001F910F9108950F931F93CF93DF93CDB714
:10233000DEB72E970FB6F894DEBF0FBECDBF2AE0F2
:102340008E010F5F1F4FA8010E94331FF8010190FB
:102350000020E9F73197BF01601B710BC8010E9493
:1023600034112E960FB6F894DEBF0FBECDBFDF91AD
:10237000CF911F910F910895EF92FF920F931F93AA
:10238000CF93DF93EC017B018A01BA010E940C110B
:1023900028813981811114C02115310519F0C90135
:1023A0000E946523198218821D821C821B821A8258
:1023B000CE01DF91CF911F910F91FF90EF90089583
:1023C0001D830C83B701C9010E94D424F1CF8F92E1
:1023D0009F92AF92BF92CF92DF92EF92FF9281E0F5
:1023E0000E94F80A20E030E040E251E40E94D2214D
:1023F00060930001709301018093020190930301A7
:1024000028E73BE740E15DE30E94F41F20E030E075
:1024100040E251E40E94F41F6B017C0120E030E0B7
:1024200040E85FEB0E947A2218160CF456C1C09265
:10243000B202D092B302E092B402F092B502C09020
:10244000B202D090B302E090B402F090B50220E066
:1024500030E048EC52E4C701B6010E94F41F4B0182
:102460005C0160915E0270915F02072E000C880B88
:10247000990B0E94951F9B01AC01C501B4010E94FC
:10248000D2216093B6027093B7028093B802909302
:10249000B9028091DB029091DC02892B41F4109209
:1024A000B6021092B7021092B8021092B90250E030
:1024B00040E06AE871E08BE394E00E94BC1187E998
:1024C00091E00E94601120E030E0A901C701B6014F
:1024D0000E947A2220E030E040E05FE387FD10C1F7
:1024E000C701B6010E9466210E9444220E949311F6
:1024F0008EE991E00E9460118BEC91E00E946011E6
:1025000082EA91E00E946011C090B602D090B702BA
:10251000E090B802F090B90220E030E0A901C701D4
:10252000B6010E947A2220E030E040E05FE387FDC0
:10253000ECC0C701B6010E9466210E9444220E949D
:10254000931181EB91E00E9460118BEC91E00E946D
:10255000601184EB91E00E9460118091DB02909108
:10256000DC020E946A1182EB91E00E9460118BEC08
:1025700091E00E9460118CEB91E00E9460118091CB
:10258000BF029091C0020E946A1182EB91E00E940A
:1025900060118BEC91E00E94601184EC91E00E944C
:1025A00060118091C3029091C4020E946A118AEC6A
:1025B00091E00E9460118091C5029091C6020E9434
:1025C0006A118AEC91E00E9460118091C70290919B
:1025D000C8020E946A118AEC91E00E946011809109
:1025E000C9029091CA020E946A118AEC91E00E948D
:1025F00060118091CB029091CC020E946A118AEC0A
:1026000091E00E9460118091CD029091CE020E94D3
:102610006A118AEC91E00E9460118091CF02909142
:10262000D0020E946A118AEC91E00E9460118091B0
:10263000D1029091D2020E946A118AEC91E00E942C
:1026400060118091D3029091D4020E946A118AECA9
:1026500091E00E9460118091D5029091D6020E9473
:102660006A118AEC91E00E9460118091D7029091EA
:10267000D8020E946A118AEC91E00E946011809158
:10268000D9029091DA020E946A1182EB91E00E94D5
:1026900060118BEC91E00E9460118DEC91E00E9442
:1026A000601180910A0190910B010E946A1182EBE6
:1026B00091E00E9460118BEC91E00E9460118CED22
:1026C00091E00E946011FF90EF90DF90CF90BF905B
:1026D000AF909F908F900C941A0320E030E040E878
:1026E0005FE3C701B6010E948E1F87FFA0CE109244
:1026F000B2021092B3021092B4021092B5029FCEB1
:10270000C701B6010E946521EFCEC701B6010E9444
:10271000652113CF8F929F92AF92BF92CF92DF929B
:10272000EF92FF920F931F93CF93DF93C090B60267
:10273000D090B702E090B802F090B90220E030E00B
:1027400040E450E4C701B6010E948E1F18160CF435
:1027500089C0E8EEF2E082E380838183828333964E
:1027600093E0EF36F907C1F780910A0180932804BE
:102770000E949D030E94D01E2DE2C22ED12CE12C7E
:10278000F12CA70196010E94CB20FB01EE0FFF1F49
:10279000E60FF71FE851FD4FCFEFC083C183C2831F
:1027A0000E94D01EA70196010E94CB20FB01EE0FD4
:1027B000FF1FE60FF71FE851FD4FC083C183C2839F
:1027C0000E94D01EA70196010E94CB20FB01EE0FB4
:1027D000FF1FE60FF71FE851FD4F10821182128292
:1027E0000E94D01EA70196010E94CB20FB01EE0F94
:1027F000FF1FE60FF71FE851FD4F10821182128272
:102800000E94D01EA70196010E94CB20FB01EE0F73
:10281000FF1FE60FF71FE851FD4F10821182128251
:102820000E94D01EA70196010E94CB20FB01EE0F53
:10283000FF1FE60FF71FE851FD4F10821182128231
:1028400080910A0180932804DF91CF911F910F910D
:10285000FF90EF90DF90CF90BF90AF909F908F90C0
:102860000C949D0320E030E040E450E4C701B60141
:102870000E947A2218160CF046C020E030E048E4AE
:1028800052E4C701B6010E948E1F1816E4F1C8EE8B
:10289000D2E02FE633E0FE0182E3808381838283EE
:1028A00033962E173F07C9F720E030E044E352E4A7
:1028B000C701B6010E94F41F20E030E048EC52E46A
:1028C0000E94D2214B015C0110E000E0B801012E12
:1028D000000C880B990B0E94951FA50194010E9482
:1028E0008E1F18160CF4ACCF1882A7019601C701F1
:1028F000B6010E9466210E944B2269831A820F5FF3
:102900001F4F2396E3CF20E030E048E452E4C701B4
:10291000B6010E947A2218160CF067C020E030E061
:1029200046E952E4C701B6010E948E1F18160CF446
:102930005CC0C8EED2E0FE0182E3808381838283A3
:10294000339693E0EF36F907C1F720E030E044E337
:1029500052E4C701B6010E94F41F20E030E048ECC9
:1029600052E40E94D2214B015C0110E000E0B8016A
:10297000012E000C880B990B0E94951FA501940154
:102980000E948E1F181614F5CAE2D3E006E110E08B
:10299000B801012E000C880B990B0E94951F9B011A
:1029A000AC01C501B4010E947A2287FD49CFA7017D
:1029B0009601C701B6010E9466210E944B226883DE
:1029C00069831A820F5F1F4F2396E2CF1882A701F7
:1029D0009601C701B6010E9466210E944B226983BD
:1029E0001A820F5F1F4F2396C2CF20E030E046E9E6
:1029F00052E4C701B6010E947A2218160CF08AC070
:102A000020E030E048EC52E4C701B6010E948E1F7E
:102A100018160CF47FC0C8EED2E02FE633E0FE01BA
:102A200082E380838183828333962E173F07C9F721
:102A300020E030E044E352E4C701B6010E94F41FF5
:102A400020E030E048EC52E40E94D2214B015C01CE
:102A500010E000E0B801012E000C880B990B0E94D9
:102A6000951FA50194010E948E1F1816ACF5CAE2AD
:102A7000D3E006E110E0B801012E000C880B990BA1
:102A80000E94951F9B01AC01C501B4010E947A22EE
:102A900087FF31C0CBE4D3E001E210E0B801012EA2
:102AA000000C880B990B0E94951F9B01AC01C5017E
:102AB000B4010E947A2287FDC3CEA7019601C70107
:102AC000B6010E9466210E944B22688319821A82F5
:102AD0000F5F1F4F2396E2CF1882A7019601C7010F
:102AE000B6010E9466210E944B2269831A820F5F01
:102AF0001F4F2396AFCFA7019601C701B6010E94D1
:102B000066210E944B22688369831A820F5F1F4FE0
:102B10002396B1CF20E030E048EC52E4C701B60183
:102B20000E947A221816BCF520E030E046E153E41A
:102B3000C701B6010E948E1F18166CF120E030E02C
:102B400044E352E4C701B6010E94F41F20E030E0E4
:102B500048EC52E40E94D2214B015C01C8EED2E065
:102B600010E000E0EE24EA9484E6F82EB801012E8D
:102B7000000C880B990B0E94951FA50194010E94DF
:102B80008E1F18160CF45CCEE882F9821A820F5F51
:102B90001F4F2396EBCFE8EEF2E08FEF8083118298
:102BA0001282339693E0EF36F907C1F749CECF9200
:102BB000DF92EF92FF928091DB029091DC0201970D
:102BC00009F064C08091BF029091C0022091C102BF
:102BD0003091C202009739F08130910581F4209143
:102BE000C3023091C40230935F0220935E028530AD
:102BF000910581F48091CB029091CC0219C0823072
:102C0000910579F42091C5023091C60230935F029C
:102C100020935E02069781F48091CD029091CE02BE
:102C200007C083309105C1F58091C7029091C80219
:102C300090935F0280935E0220E030E048EC52E423
:102C40006091B2027091B3028091B4029091B5028A
:102C50000E94F41F6B017C0160915E0270915F0223
:102C6000072E000C880B990B0E94951F9B01AC014D
:102C7000C701B6010E94D2216093B6027093B702D9
:102C80008093B8029093B9020E948A13FF90EF904C
:102C9000DF90CF900C941A038430910509F0A7CFF0
:102CA0008091C9029091CA02C3CF0F931F93CF9313
:102CB000DF938091DB029091DC02029709F0BAC0A9
:102CC0008091BF029091C0022091C1023091C20256
:102CD000009709F458C02091C3023091C40281309A
:102CE000910509F450C02091C5023091C60282308E
:102CF000910509F448C02091C7023091C802833081
:102D0000910509F440C02091C9023091CA02843073
:102D10009105C9F12091CB023091CC02853091050B
:102D200091F12091CD023091CE028630910559F17A
:102D30002091CF023091D0028730910521F120916E
:102D4000D1023091D20288309105E9F02091D3026E
:102D50003091D40289309105B1F02091D5023091A3
:102D6000D6028A30910579F02091D7023091D802AD
:102D70008B30910541F08C30910509F061C02091B4
:102D8000D9023091DA02121613060CF059C03093B2
:102D90005F0220935E0220E030E042EC52E460915A
:102DA000B6027091B7028091B8029091B9020E9468
:102DB0007A221816ECF508EE12E082E793E0E801BB
:102DC0002FEF288319821A8223968C179D07C9F743
:102DD0000E949D0368EE73E080E090E00E94E702AD
:102DE0000E94C60AF8011082118212820D5F1F4FE5
:102DF000C017D107B9F780910A01809328040E9477
:102E00009D038091BF029091C00201969093C002F1
:102E10008093BF021092B6021092B7021092B802CD
:102E20001092B9028FE996E890935F0280935E0258
:102E30000E948A13DF91CF911F910F910C941A0376
:102E400020915E0230915F02232B31F40196909322
:102E5000C0028093BF029FCF8D309105BCF31092CA
:102E6000DC021092DB021092C0021092BF0293CFDC
:102E7000FC0182819381009789F02585368577FD55
:102E8000B901261737070CF4B901AB01440F551FE0
:102E9000460F571F70E060E00C94C42408951F9201
:102EA0000F920FB60F9211242F933F938F939F93FE
:102EB000AF93BF938091E0029091E102A091E20272
:102EC000B091E3023091DF0223E0230F2D3758F554
:102ED0000196A11DB11D2093DF028093E002909323
:102EE000E102A093E202B093E3028091E4029091A8
:102EF000E502A091E602B091E7020196A11DB11D85
:102F00008093E4029093E502A093E602B093E70277
:102F1000BF91AF919F918F913F912F910F900FBED5
:102F20000F901F90189526E8230F0296A11DB11D42
:102F3000D2CF1F920F920FB60F9211242F933F936F
:102F40004F935F936F937F938F939F93AF93BF93B1
:102F5000EF93FF938BE893E00E942F05FF91EF9191
:102F6000BF91AF919F918F917F916F915F914F91A1
:102F70003F912F910F900FBE0F901F9018951F92A9
:102F80000F920FB60F9211242F938F939F93EF936D
:102F9000FF93E0919B03F0919C038081E091A1035A
:102FA000F091A20382FD1BC090818091A4038F5FEA
:102FB0008F732091A503821741F0E091A403F0E004
:102FC000E557FC4F958F8093A403FF91EF919F915C
:102FD0008F912F910F900FBE0F901F9018958081A9
:102FE000F4CFEBE8F3E01382128288EE93E0A0E0E6
:102FF000B0E084839583A683B78382E791E09183D1
:10300000808385EC90E09587848784EC90E09787B7
:10301000868780EC90E0918B808B81EC90E0938BA5
:10302000828B82EC90E0958B848B86EC90E0978B82
:10303000868B118E128E138E148EE8E2F4E08FEFE1
:10304000808312821182148613868FEF9FEFDC013A
:1030500087839087A187B287138214821582168294
:10306000E1E8F4E084E891E09183808315821682A0
:103070001782108680E090E0A0E8BFE38187928706
:10308000A387B487E1E4F4E08AE0DF011D928A952A
:10309000E9F712AA13AA14AA15AA16AA17AA10AE1B
:1030A00011AE17AEEBE3F4E01182108213821282AC
:1030B0001582148250E040E06AE871E0CF010E947E
:1030C000BC11E5E3F4E011821082138212821582B2
:1030D000148250E040E06AE871E0CF010C94BC112A
:1030E000CF93DF9300D000D000D0CDB7DEB7789477
:1030F00084B5826084BD84B5816084BD85B58260FD
:1031000085BD85B5816085BD80916E0081608093AD
:103110006E00109281008091810082608093810016
:103120008091810081608093810080918000816026
:10313000809380008091B10084608093B100809181
:10314000B00081608093B00080917A0084608093A9
:103150007A0080917A00826080937A0080917A0070
:10316000816080937A0080917A00806880937A00F1
:103170001092C100E0919B03F0919C0312E0108338
:10318000E0919703F09198031082E0919903F091F8
:103190009A038FEC80831092A303E0919F03F09138
:1031A000A00386E08083E0919D03F0919E038081DF
:1031B00080618083E0919D03F0919E03808188600F
:1031C0008083E0919D03F0919E03808180688083DD
:1031D000E0919D03F0919E0380818F7D808390E03C
:1031E00080E00E94B5208093BB0281E090E00E94C5
:1031F000B5208093BC0282E090E00E94B5208093CD
:10320000BD0283E090E00E94B5208093BE0287EE6D
:1032100091E1909342048093410475E0872E912CB4
:10322000A12CB12C80925F0490926004A092610462
:10323000B092620490E080E00E947F0387ED95E108
:103240009093440480934304EAE0CE2ED12CE12CE9
:10325000F12CC0926304D0926404E0926504F09271
:10326000660481E090E00E947F0310927C0489E76D
:1032700090E19093460480934504C0926704D092F5
:103280006804E0926904F0926A0482E090E00E948F
:103290007F0380E49BE090934804809347048092EE
:1032A0006B0490926C04A0926D04B0926E0483E063
:1032B00090E00E947F0385E596E190934A04809315
:1032C0004904C0926F04D0927004E0927104F092AD
:1032D000720484E090E00E947F0310927F0483E0F8
:1032E0008093830410938404E0EAF3E02491ECE8F3
:1032F000F3E08491882399F090E0880F991FFC01F6
:10330000E25CFE4FA591B491FC01EB58FC4F859116
:1033100094918FB7F894EC91E22BEC938FBF80914E
:10332000840490E0FC01E356FC4F249187579C4FA6
:10333000FC0184918823C9F090E0880F991FFC015B
:10334000E25CFE4F45915491FC01EB58FC4FA59176
:10335000B4919FB7F894FA013081822F809583232E
:103360008083EC912E2B2C939FBF11E0109385044A
:1033700080E090E0A0E8BFE380938A0490938B0400
:10338000A0938C04B0938D040E94C60A8091AA0277
:10339000811154C010929602109295028FEF809383
:1033A000990280939A0280939B0280939C0280935F
:1033B0009D0280939E0210939F021092A102109290
:1033C000A00280E797E19093A3028093A20283E09A
:1033D00090E09093A5028093A4021092A70210920D
:1033E000A602109298021092970280918503909104
:1033F0008603892B31F483E992E0909386038093CE
:103400008503E0919102F0919202309721F083E9D7
:1034100092E09583848383E992E090939202809373
:1034200091021092A9021092A8028BE391E090936E
:1034300094028093930281E08093AA02569A88EEC8
:1034400092E090939602809395028DE290E09093A3
:10345000A1028093A00280912B0490912C04A09152
:103460002D04B0912E04843CF9E09F07A105B1051D
:1034700020F484EC99E0A0E0B0E080932B049093DA
:103480002C04A0932D04B0932E048FEF8093990207
:1034900080EB80939A0280EF80939B0248EEC42ECB
:1034A00042E0D42E8FE693E08601D8011C9211965B
:1034B0001C92119712961C920D5F1F4F8017910757
:1034C000A1F780910A01809328040E949D0384E65D
:1034D00090E00E94B5208B8385E690E00E94B520A5
:1034E0008C838B819C81039709F0EFC038EEE32E2B
:1034F00032E0F32E8FEFF701108281831282F3E026
:10350000EF0EF11CE016F106B1F780910A018093ED
:1035100028040E949D0364E670E080E090E00E9431
:10352000E7028EED91E00E94E50E84E190E00E94BA
:10353000B52025E0829FB0011124072E000C880BD6
:10354000990B0E94951F609304017093050180936D
:1035500006019093070142E00E94680F89EF91E015
:103560000E949E0568E873E180E090E00E94E70217
:1035700088EE91E00E949E0560ED77E080E090E0AB
:103580000E94E70286EE91E00E949E0568EE73E0DD
:1035900080E090E00E94E70284EE91E00E949E05A8
:1035A00068EE73E080E090E00E94E70280EE91E038
:1035B0000E949E0568EE73E080E090E00E94E702C2
:1035C0008EEA91E00E949E0568EE73E080E090E054
:1035D0000E94E7028AE00E94F80A4B015C012091F8
:1035E000000130910101409102015091030160916D
:1035F00004017091050180910601909107010E94DC
:10360000D2219B01AC01C501B4010E94D22160937B
:10361000BB027093BC028093BD029093BE020E94D5
:1036200044102BEBA22E22E0B22E10E000E0D501D8
:103630009D905D01C8010E94B520981621F0692D6A
:10364000C8010E94BD200F5F1F4F0430110579F79C
:103650001A821982BE016F5F7F4F84E690E00E945C
:10366000551064E670E080E090E00E94E7028BEA8B
:1036700091E00E949E0580E891E00E949E0564E62C
:1036800070E080E090E00E94E70288E491E00E9410
:103690009E0564E670E080E090E00E94E70292E719
:1036A00083EAF601908311828283F3E0CF0ED11C6E
:1036B000CE14DF04B1F780910A01809328040E94A0
:1036C0009D0390E080E00E94DB248091BB029091FA
:1036D000BC02A091BD02B091BE0280938A04909377
:1036E0008B04A0938C04B0938D048091DD029091A3
:1036F000DE02892B39F01092DE021092DD02F0E03A
:10370000E0E0099591E4C92E94E0D92E3601F12C20
:10371000E12CD6018D919C91892B09F441C0F301D4
:1037200082AD8823E9F180918004882309F4ACC13B
:103730000E94C20297012F5B3B4F3E832D83D9012C
:103740005E968D909D90AD90BC9091978114910460
:10375000A104B10409F11A962D903D904D905C9012
:103760001D976219730984099509681579058A05F9
:103770009B05B0F0A50194010E943421C501B4015C
:103780000E948422260E371E481E591EED81FE819E
:103790002286338644865586D601ED91FC910995A3
:1037A000B2E0CB0ED11CEFEF6E1A7E0AF4E0EF0E02
:1037B000F11C24E1E216F10409F0ABCF8091BA02CA
:1037C000882331F188EEE82E82E0F82ED7011C9292
:1037D00011961C921197EFEF1296EC930E949D03A5
:1037E000F3E0EF0EF11CE016F10681F762E370E002
:1037F00080E090E00E94E7021092E8021092E90255
:103800001092EA020E949D030E94C60A1092BA0218
:1038100080910C01882309F4E6C086E693E00E94BB
:103820009E056091B6027091B7028091B8029091A6
:10383000B9020E9444108EE593E00E949E0580919B
:10384000DB029091DC020E94360F86E593E00E9435
:103850009E058091BF029091C0020E94360F84E4C1
:1038600093E00E949E058DE290E00E94360F81E376
:1038700093E00E949E0580910A0190910B010E94A5
:10388000360F87E293E00E949E056091B20270912C
:10389000B3028091B4029091B5020E94441081E17C
:1038A00093E00E949E056091BB027091BC028091E2
:1038B000BD029091BE020E9444108BEF92E00E94E4
:1038C0009E0560910401709105018091060190911F
:1038D00007010E94441082EF92E00E949E056091D1
:1038E00000017091010180910201909103010E94F9
:1038F000441084EE92E00E949E058091C302909154
:10390000C4020E94360F86ED92E00E949E058091CF
:10391000C5029091C6020E94360F88EC92E00E9488
:103920009E058091C7029091C8020E94360F8AEBD3
:1039300092E00E949E058091C9029091CA020E9465
:10394000360F8CEA92E00E949E058091CB02909106
:10395000CC020E94360F8EE992E00E949E05809173
:10396000CD029091CE020E94360F80E992E00E9433
:103970009E058091CF029091D0020E94360F82E87E
:1039800092E00E949E058091D1029091D2020E9405
:10399000360F84E792E00E949E058091D3029091B9
:1039A000D4020E94360F85E692E00E949E05809127
:1039B000D5029091D6020E94360F86E592E00E94D1
:1039C0009E058091D7029091D8020E94360F87E41D
:1039D00092E00E949E058091D9029091DA020E94A5
:1039E000360F10920C018091DB029091DC0200975F
:1039F00009F04DC010927C0410927D0410927F0457
:103A000083E090E00E947F038BE893E00E940F0523
:103A1000181619060CF087C08BE893E00E94ED049D
:103A2000D82E082E000C990B0E94B324892B09F480
:103A30007AC062E070E080E090E00E94E702F12C42
:103A4000E12C8BE893E00E940F05181619060CF084
:103A500042C08BE893E00E94ED04082E000C990B05
:103A6000C0978A309105B8F54AE04E9D90014F9D70
:103A7000300D11247C01E20EF31E62E070E080E064
:103A800090E00E94E702DDCF0E941A0353CE8130FE
:103A9000910549F410927D0410927E0410927F04E7
:103AA00081E090E0AFCF8230910549F410927C0420
:103AB00010927D0410927E0484E090E0A3CF0397DF
:103AC00009F0A2CF10927C0410927E0410927F0421
:103AD00082E090E097CFEFE9ED0DE93120F50E2E71
:103AE000000CFF0BEA58F24E0C94A8228F1DB71D54
:103AF000BC1DC11DC61DCB1DD01DD51DDA1DDF1D72
:103B0000E41DE91DEE1DF31DF81D931D931D931D6E
:103B1000FD1D931D931D931D221E021E1E1EF0925D
:103B2000C402E092C302C0903F04D0904004809150
:103B3000390490913A04E0903B04F0903C04C8169C
:103B4000D90609F0AAC06091350470913604E114D9
:103B5000F10409F494C06115710509F077C0C1142E
:103B6000D10409F4A4C0F701808190E094C0F092E0
:103B7000C602E092C502D7CFF092C802E092C70217
:103B8000D2CFF092CA02E092C902CDCFF092CC021D
:103B9000E092CB02C8CFF092CE02E092CD02C3CF2A
:103BA000F092D002E092CF02BECFF092D202E09229
:103BB000D102B9CFF092D402E092D302B4CFF09206
:103BC000D602E092D502AFCFF092D802E092D702AF
:103BD000AACFF092DA02E092D902A5CFF092DC02ED
:103BE000E092DB02A0CFF0920B01E0920A019BCFA2
:103BF000F0920901E092080196CFF092C002E092A3
:103C0000BF0291CF80E092E00E94E50E88E891E04B
:103C10000E94E50E84E492E00E94E50E6091BB02F2
:103C20007091BC028091BD029091BE0242E00E9460
:103C3000680F88E891E00E94E50E75CF81E08093DF
:103C40000C0171CF91E09093BA026DCFC7010E9431
:103C5000CB2421C08091350490913604009711F057
:103C60000E946523109236041092350410923A0493
:103C700010923904109238041092370427C061154D
:103C80007105A9F0C114D10491F0DB018C9190E091
:103C9000919581959109892B51F0A601B7018BE887
:103CA00093E00E94B10488E891E00E94E50E6091E3
:103CB0003B0470913C046115710561F240913F0431
:103CC0005091400485E394E00E94BC1120E030E074
:103CD000232B09F40ACD0E941B05882309F405CD86
:103CE0000E94000002CD8091350490913604009727
:103CF00011F00E94652380913B0490913C04009751
:103D000011F00C94652308958F929F92AF92BF9209
:103D1000CF92DF92EF92FF92CF93DF93EC01688115
:103D200079818A819B81611571058105910521F455
:103D300064E279ED8BE597E02DE133EF41E050E06F
:103D40000E94CB2049015A019B01AC01A7EAB1E4D2
:103D50000E94EA206B017C01ACEEB4EFA501940156
:103D60000E94F820C60ED71EE81EF91EF7FE06C0F8
:103D700081E0C81AD108E10880E8F80AC882D9822F
:103D8000EA82FB82C701B6019F77DF91CF91FF9056
:103D9000EF90DF90CF90BF90AF909F908F9008955D
:103DA0008F929F92AF92BF92CF92DF92EF92FF924B
:103DB00060910F0170911001809111019091120199
:103DC000611571058105910521F464E279ED8BE5BA
:103DD00097E02DE133EF41E050E00E94CB20490114
:103DE0005A019B01AC01A7EAB1E40E94EA206B01F1
:103DF0007C01ACEEB4EFA50194010E94F820C60E40
:103E0000D71EE81EF91EF7FE06C081E0C81AD108C9
:103E1000E10880E8F80AC0920F01D0921001E09208
:103E20001101F0921201C701B6019F77FF90EF9048
:103E3000DF90CF90BF90AF909F908F900895609348
:103E40000F01709310018093110190931201089556
:103E5000BB274A3031F4992322F4BDE29095819535
:103E60009F4F0C94651FBB272A3051F4992342F4CD
:103E7000BDE290958095709561957F4F8F4F9F4FD4
:103E80000C94431FBB27FA01A62F62177105810509
:103E90009105330B30FB66F0AA27660F771F881F4A
:103EA000991FAA1FA21710F0A21B63953850A9F7FB
:103EB000A05DAA3308F0A95DA19336F7B111B193C3
:103EC0001082CA010C947E1FBB27FB015527AA272D
:103ED000880F991FAA1FA41710F0A41B8395505197
:103EE000B9F7A05DAA3308F0A95DA193009779F70F
:103EF000B111B1931192CB010C947E1FDC01FC0136
:103F0000672F71917723E1F7329704C07C916D930D
:103F100070836291AE17BF07C8F308950E94D01F47
:103F200008F481E00895E89409C097FB3EF4909569
:103F30008095709561957F4F8F4F9F4F9923A9F082
:103F4000F92F96E9BB279395F69587957795679511
:103F5000B795F111F8CFFAF4BB0F11F460FF1BC055
:103F60006F5F7F4F8F4F9F4F16C0882311F096E9E8
:103F700011C0772321F09EE8872F762F05C0662396
:103F800071F096E8862F70E060E02AF09A95660F4F
:103F9000771F881FDAF7880F9695879597F9089508
:103FA000990F0008550FAA0BE0E8FEEF161617064A
:103FB000E807F907C0F012161306E407F50798F0B2
:103FC000621B730B840B950B39F40A2661F0232BCB
:103FD000242B252B21F408950A2609F4A140A69547
:103FE0008FEF811D811D08950E9407200C947B2076
:103FF0000E946D2038F00E94742020F0952311F06B
:104000000C9464200C946A2011240C94AF200E941C
:104010008C2070F3959FC1F3950F50E0551F629F60
:10402000F001729FBB27F00DB11D639FAA27F00D11
:10403000B11DAA1F649F6627B00DA11D661F829F38
:104040002227B00DA11D621F739FB00DA11D621F1D
:10405000839FA00D611D221F749F3327A00D611D3A
:10406000231F849F600D211D822F762F6A2F11241C
:104070009F5750409AF0F1F088234AF0EE0FFF1F4F
:10408000BB1F661F771F881F91505040A9F79E3FA6
:10409000510580F00C9464200C94AF205F3FE4F352
:1040A000983ED4F3869577956795B795F795E795FC
:1040B0009F5FC1F7FE2B880F911D9695879597F905
:1040C000089599278827089597F99F6780E870E0F9
:1040D00060E008959FEF80EC089500240A9416167E
:1040E000170618060906089500240A9412161306E6
:1040F000140605060895092E0394000C11F4882374
:1041000052F0BB0F40F4BF2B11F460FF04C06F5F8F
:104110007F4F8F4F9F4F089557FD9058440F551F65
:1041200059F05F3F71F04795880F97FB991F61F039
:104130009F3F79F087950895121613061406551FB0
:10414000F2CF4695F1DF08C0161617061806991F1C
:10415000F1CF86957105610508940895E894BB2711
:1041600066277727CB0197F90895F999FECF92BD7D
:1041700081BDF89A992780B50895262FF999FECF29
:104180001FBA92BD81BD20BD0FB6F894FA9AF99A74
:104190000FBE01960895052E97FB1EF400940E9411
:1041A000E22057FD07D00E94342107FC03D04EF4D3
:1041B0000C94E22050954095309521953F4F4F4FFC
:1041C0005F4F089590958095709561957F4F8F4FC3
:1041D0009F4F08950E945621A59F900DB49F900D6A
:1041E000A49F800D911D11240895B7FF0C94EA201F
:1041F0000E94EA20821B930B08952F923F924F92C8
:104200005F926F927F928F929F92AF92BF92CF9266
:10421000DF92EF92FF920F931F93CF93DF93CDB76F
:10422000DEB7CA1BDB0B0FB6F894DEBF0FBECDBFE7
:1042300009942A88398848885F846E847D848C84B8
:104240009B84AA84B984C884DF80EE80FD800C81C1
:104250001B81AA81B981CE0FD11D0FB6F894DEBFA4
:104260000FBECDBFED010895A1E21A2EAA1BBB1B04
:10427000FD010DC0AA1FBB1FEE1FFF1FA217B30732
:10428000E407F50720F0A21BB30BE40BF50B661F48
:10429000771F881F991F1A9469F76095709580950C
:1042A00090959B01AC01BD01CF010895A29FB00183
:1042B000B39FC001A39F700D811D1124911DB29F5A
:1042C000700D811D1124911D08955058BB27AA27F8
:1042D0000E947D210C947B200E946D2038F00E946A
:1042E000742020F039F49F3F19F426F40C946A20CE
:1042F0000EF4E095E7FB0C946420E92F0E948C20DB
:1043000058F3BA17620773078407950720F079F40A
:10431000A6F50C94AE200EF4E0950B2EBA2FA02D2E
:104320000B01B90190010C01CA01A0011124FF2762
:10433000591B99F0593F50F4503E68F11A16F0405D
:10434000A22F232F342F4427585FF3CF469537955C
:104350002795A795F0405395C9F77EF41F16BA0B21
:10436000620B730B840BBAF09150A1F0FF0FBB1FCF
:10437000661F771F881FC2F70EC0BA0F621F731F18
:10438000841F48F4879577956795B795F7959E3F75
:1043900008F0B0CF9395880F08F09927EE0F979506
:1043A000879508950E94E6210C947B200E9474203A
:1043B00058F00E946D2040F029F45F3F29F00C94E2
:1043C000642051110C94AF200C946A200E948C2020
:1043D00068F39923B1F3552391F3951B550BBB2734
:1043E000AA2762177307840738F09F5F5F4F220F79
:1043F000331F441FAA1FA9F335D00E2E3AF0E0E870
:1044000032D091505040E695001CCAF72BD0FE2FB9
:1044100029D0660F771F881FBB1F2617370748074D
:10442000AB07B0E809F0BB0B802DBF01FF27935805
:104430005F4F3AF09E3F510578F00C9464200C9445
:10444000AF205F3FE4F3983ED4F386957795679568
:10445000B795F7959F5FC9F7880F911D969587953A
:1044600097F90895E1E0660F771F881FBB1F621759
:1044700073078407BA0720F0621B730B840BBA0B17
:10448000EE1F88F7E09508950E944B226894B111C1
:104490000C94AF2008950E94942088F09F5798F0C4
:1044A000B92F9927B751B0F0E1F0660F771F881F39
:1044B000991F1AF0BA95C9F714C0B13091F00E9453
:1044C000AE20B1E008950C94AE20672F782F882796
:1044D000B85F39F0B93FCCF3869577956795B3957A
:1044E000D9F73EF490958095709561957F4F8F4FE9
:1044F0009F4F08950E94D01F08F48FEF08950E94E7
:10450000D01F880B990B0895DB018F939F930E9416
:10451000EA20BF91AF91A29F800D911DA39F900DA6
:10452000B29F900D1124089597FB072E16F4009466
:1045300007D077FD09D00E94B52207FC05D03EF4D4
:10454000909581959F4F0895709561957F4F08953F
:10455000EE0FFF1F0590F491E02D09940E94562163
:10456000B7FF0895821B930B0895AA1BBB1B51E153
:1045700007C0AA1FBB1FA617B70710F0A61BB70BD3
:10458000881F991F5A95A9F780959095BC01CD0178
:1045900008950F931F93CF93DF938230910510F40A
:1045A00082E090E0E0919004F091910430E020E00E
:1045B000B0E0A0E0309799F42115310509F44AC024
:1045C000281B390B24303105D8F58A819B81611570
:1045D000710589F1FB0193838283FE0111C0408143
:1045E00051810281138148175907E0F04817590794
:1045F00099F4109761F012960C93129713961C93EE
:104600003296CF01DF91CF911F910F9108950093C2
:10461000900410939104F4CF2115310551F0421705
:10462000530738F0A901DB019A01BD01DF01F80150
:10463000C1CFEF01F9CF9093910480939004CDCF37
:10464000FE01E20FF31F81939193225031093983C8
:104650002883D7CF20918E0430918F04232B41F4EF
:10466000209115013091160130938F0420938E0410
:1046700020911301309114012115310541F42DB71A
:104680003EB74091170150911801241B350BE09162
:104690008E04F0918F04E217F307A0F42E1B3F0B5A
:1046A0002817390778F0AC014E5F5F4F24173507A4
:1046B00048F04E0F5F1F50938F0440938E048193F8
:1046C00091939FCFF0E0E0E09CCFCF93DF930097F2
:1046D000E9F0FC01329713821282A0919004B0910C
:1046E0009104ED0130E020E01097A1F420813181A8
:1046F000820F931F20918E0430918F042817390761
:1047000009F061C0F0938F04E0938E04DF91CF91A4
:104710000895EA01CE17DF07E8F54A815B819E0123
:1047200041155105B1F7E901FB83EA83499159919C
:10473000C40FD51FEC17FD0761F4808191810296AB
:10474000840F951FE90199838883828193819B83DC
:104750008A83F0E0E0E012968D919C911397009788
:10476000B9F52D913C911197CD010296820F931FBF
:1047700020918E0430918F042817390739F630972D
:1047800051F51092910410929004B0938F04A0936D
:104790008E04BCCFD383C28340815181840F951F87
:1047A000C817D90761F44E5F5F4F88819981480F20
:1047B000591F518340838A819B8193838283211572
:1047C000310509F0B0CFF0939104E09390049ECFAF
:1047D000FD01DC01C0CF13821282D7CFB0E0A0E090
:1047E000E4EFF3E20C94FF208C01009751F4CB012D
:1047F0000E94C9228C01C801CDB7DEB7E0E10C945C
:104800001B21FC01E60FF71F9C0122503109E21722
:10481000F30708F49DC0D901CD91DC911197C6171B
:10482000D70798F0C530D10530F3CE01049786172D
:10483000970708F3C61BD70B2297C193D1936D93AB
:104840007C93CF010E946523D6CF5B01AC1ABD0AD1
:104850004C018C0E9D1EA0919004B0919104512C9E
:10486000412CF12CE12C109731F580918E04909120
:104870008F048815990509F05CC04616570608F0A4
:1048800058C08091130190911401009741F48DB7A5
:104890009EB74091170150911801841B950BE817A2
:1048A000F90708F055C0F0938F04E0938E04F901E6
:1048B00071836083A0CF8D919C91119712966C901B
:1048C000129713967C901397A815B90559F56C01AA
:1048D00042E0C40ED11CCA14DB0420F1AC014A1919
:1048E0005B09DA011296159780F062827382518318
:1048F0004083D9016D937C93E114F10471F0D701E9
:104900001396FC93EE93129776CF22968C0F9D1FF1
:10491000F90191838083F301EFCFF0939104E09349
:10492000900469CF4816590608F42C017D01D30183
:104930009ACFCB010E94C9227C01009749F0AE01B9
:10494000B8010E94BB24C8010E946523870153CF90
:1049500010E000E050CF81E090E0F8940C94DB246C
:1049600085FD0C946120806291110C946120815628
:104970008A51D8F70895FB01DC0102C001900D9225
:1049800041505040D8F70895DC0101C06D9341506B
:104990005040E0F70895FB01DC018D9101908019F2
:1049A0000110D9F3990B0895FB01DC0101900D92E0
:1049B0000020E1F7089511E0C4EED1E004C0FE014B
:1049C0000E94A8222196C53ED107C9F7F894FFCFCF
:1049D000787B103D00007A430100FA00013905019F
:1049E000000000000092048000003131295A1B753C
:1049F0000A000000000A110A110A1138172B0A6276
:104A000009270A240A210A00000000CD0967096568
:104A10000938172B0A6209270A240AAE040807007E
:104A2000003100F9183000FB302C001C47260082B2
:104A30005A1F006D6A170041760E00897D04000040
:104A400000005105B104DE04B9050F05ED040105B0
:104A500000000000CA0653100D0A006E616E006966
:104A60006E66006F766600247665733A20002067D4
:104A70003B00246E6F775F70657263656E743A20D9
:104A800000253B00246D6F64653A20002473746533
:104A9000703A2000246D6C3A20002C2000247465AC
:104AA00073745F737472696E673A20004000D0A31C
:104AB000D181D182D0B0D0BDD0BED0B2D0B8D18259
:104AC000D0B520D0B3D180D183D0B720D0B22000D0
:104AD000D0A2D095D09AD0A3D0A9D095D09520D0EF
:104AE000A1D09ED0A1D0A2D09ED0AFD09DD098D042
:104AF0009520D09FD090D09CD0AFD0A2D09820D07D
:104B0000A3D0A1D0A2D0A0D09ED099D0A1D0A2D025
:104B100092D0900063616C6962726174696F6E5FBC
:0A4B2000666163746F723A200000B2
:00000001FF
